{
  "contractName": "Raffle",
  "abi": [
    {
      "constant": true,
      "inputs": [
        {
          "name": "",
          "type": "uint256"
        }
      ],
      "name": "tickets",
      "outputs": [
        {
          "name": "fullname",
          "type": "string"
        },
        {
          "name": "email",
          "type": "string"
        }
      ],
      "payable": false,
      "stateMutability": "view",
      "type": "function"
    },
    {
      "constant": true,
      "inputs": [],
      "name": "ownerName",
      "outputs": [
        {
          "name": "",
          "type": "string"
        }
      ],
      "payable": false,
      "stateMutability": "view",
      "type": "function"
    },
    {
      "constant": true,
      "inputs": [],
      "name": "owner",
      "outputs": [
        {
          "name": "",
          "type": "address"
        }
      ],
      "payable": false,
      "stateMutability": "view",
      "type": "function"
    },
    {
      "constant": true,
      "inputs": [
        {
          "name": "",
          "type": "uint256"
        }
      ],
      "name": "drawnTickets",
      "outputs": [
        {
          "name": "fullname",
          "type": "string"
        },
        {
          "name": "email",
          "type": "string"
        }
      ],
      "payable": false,
      "stateMutability": "view",
      "type": "function"
    },
    {
      "inputs": [
        {
          "name": "_name",
          "type": "string"
        }
      ],
      "payable": false,
      "stateMutability": "nonpayable",
      "type": "constructor"
    },
    {
      "anonymous": false,
      "inputs": [],
      "name": "TicketBought",
      "type": "event"
    },
    {
      "anonymous": false,
      "inputs": [],
      "name": "TicketDrawn",
      "type": "event"
    },
    {
      "constant": false,
      "inputs": [
        {
          "name": "fullname",
          "type": "string"
        },
        {
          "name": "email",
          "type": "string"
        }
      ],
      "name": "buyTicket",
      "outputs": [],
      "payable": false,
      "stateMutability": "nonpayable",
      "type": "function"
    },
    {
      "constant": true,
      "inputs": [],
      "name": "currentWinner",
      "outputs": [
        {
          "name": "fullname",
          "type": "string"
        }
      ],
      "payable": false,
      "stateMutability": "view",
      "type": "function"
    },
    {
      "constant": true,
      "inputs": [],
      "name": "size",
      "outputs": [
        {
          "name": "",
          "type": "uint256"
        }
      ],
      "payable": false,
      "stateMutability": "view",
      "type": "function"
    },
    {
      "constant": true,
      "inputs": [],
      "name": "drawnSize",
      "outputs": [
        {
          "name": "",
          "type": "uint256"
        }
      ],
      "payable": false,
      "stateMutability": "view",
      "type": "function"
    },
    {
      "constant": false,
      "inputs": [],
      "name": "drawTicket",
      "outputs": [],
      "payable": false,
      "stateMutability": "nonpayable",
      "type": "function"
    },
    {
      "constant": false,
      "inputs": [
        {
          "name": "idx",
          "type": "uint256"
        }
      ],
      "name": "removeTicket",
      "outputs": [],
      "payable": false,
      "stateMutability": "nonpayable",
      "type": "function"
    },
    {
      "constant": true,
      "inputs": [],
      "name": "randomTicketIndex",
      "outputs": [
        {
          "name": "",
          "type": "uint256"
        }
      ],
      "payable": false,
      "stateMutability": "view",
      "type": "function"
    },
    {
      "constant": true,
      "inputs": [],
      "name": "random",
      "outputs": [
        {
          "name": "",
          "type": "uint256"
        }
      ],
      "payable": false,
      "stateMutability": "view",
      "type": "function"
    }
  ],
  "bytecode": "0x60806040523480156200001157600080fd5b50604051620014c6380380620014c683398101806040528101908080518201929190505050336000806101000a81548173ffffffffffffffffffffffffffffffffffffffff021916908373ffffffffffffffffffffffffffffffffffffffff16021790555080600190805190602001906200008e92919062000096565b505062000145565b828054600181600116156101000203166002900490600052602060002090601f016020900481019282601f10620000d957805160ff19168380011785556200010a565b828001600101855582156200010a579182015b8281111562000109578251825591602001919060010190620000ec565b5b5090506200011991906200011d565b5090565b6200014291905b808211156200013e57600081600090555060010162000124565b5090565b90565b61137180620001556000396000f3006080604052600436106100ba576000357c0100000000000000000000000000000000000000000000000000000000900463ffffffff16806350b44712146100bf5780635ec01e4d146101d15780635fe2d39b146101fc57806365ac2320146102275780637623b4c3146102b75780638da5cb5b14610366578063949d225d146103bd57806395be5704146103e8578063a8dd0a8214610413578063aabe2fe314610440578063acf88e2c146104d0578063fb6f74ed146105e2575b600080fd5b3480156100cb57600080fd5b506100ea600480360381019080803590602001909291905050506105f9565b604051808060200180602001838103835285818151815260200191508051906020019080838360005b8381101561012e578082015181840152602081019050610113565b50505050905090810190601f16801561015b5780820380516001836020036101000a031916815260200191505b50838103825284818151815260200191508051906020019080838360005b83811015610194578082015181840152602081019050610179565b50505050905090810190601f1680156101c15780820380516001836020036101000a031916815260200191505b5094505050505060405180910390f35b3480156101dd57600080fd5b506101e661075c565b6040518082815260200191505060405180910390f35b34801561020857600080fd5b50610211610794565b6040518082815260200191505060405180910390f35b34801561023357600080fd5b5061023c6107a1565b6040518080602001828103825283818151815260200191508051906020019080838360005b8381101561027c578082015181840152602081019050610261565b50505050905090810190601f1680156102a95780820380516001836020036101000a031916815260200191505b509250505060405180910390f35b3480156102c357600080fd5b50610364600480360381019080803590602001908201803590602001908080601f0160208091040260200160405190810160405280939291908181526020018383808284378201915050505050509192919290803590602001908201803590602001908080601f016020809104026020016040519081016040528093929190818152602001838380828437820191505050505050919291929050505061083f565b005b34801561037257600080fd5b5061037b610c60565b604051808273ffffffffffffffffffffffffffffffffffffffff1673ffffffffffffffffffffffffffffffffffffffff16815260200191505060405180910390f35b3480156103c957600080fd5b506103d2610c85565b6040518082815260200191505060405180910390f35b3480156103f457600080fd5b506103fd610c92565b6040518082815260200191505060405180910390f35b34801561041f57600080fd5b5061043e60048036038101908080359060200190929190505050610cb6565b005b34801561044c57600080fd5b50610455610dcb565b6040518080602001828103825283818151815260200191508051906020019080838360005b8381101561049557808201518184015260208101905061047a565b50505050905090810190601f1680156104c25780820380516001836020036101000a031916815260200191505b509250505060405180910390f35b3480156104dc57600080fd5b506104fb60048036038101908080359060200190929190505050610ea7565b604051808060200180602001838103835285818151815260200191508051906020019080838360005b8381101561053f578082015181840152602081019050610524565b50505050905090810190601f16801561056c5780820380516001836020036101000a031916815260200191505b50838103825284818151815260200191508051906020019080838360005b838110156105a557808201518184015260208101905061058a565b50505050905090810190601f1680156105d25780820380516001836020036101000a031916815260200191505b5094505050505060405180910390f35b3480156105ee57600080fd5b506105f761100a565b005b60028181548110151561060857fe5b9060005260206000209060020201600091509050806000018054600181600116156101000203166002900480601f0160208091040260200160405190810160405280929190818152602001828054600181600116156101000203166002900480156106b45780601f10610689576101008083540402835291602001916106b4565b820191906000526020600020905b81548152906001019060200180831161069757829003601f168201915b505050505090806001018054600181600116156101000203166002900480601f0160208091040260200160405190810160405280929190818152602001828054600181600116156101000203166002900480156107525780601f1061072757610100808354040283529160200191610752565b820191906000526020600020905b81548152906001019060200180831161073557829003601f168201915b5050505050905082565b60008060008060004393506341c64e6d92506130399150640100000000905080828585020181151561078a57fe5b0694505050505090565b6000600380549050905090565b60018054600181600116156101000203166002900480601f0160208091040260200160405190810160405280929190818152602001828054600181600116156101000203166002900480156108375780601f1061080c57610100808354040283529160200191610837565b820191906000526020600020905b81548152906001019060200180831161081a57829003601f168201915b505050505081565b60008061084a611146565b610852611146565b60009350600092505b8315801561086d575060028054905083105b15610ba25760028381548110151561088157fe5b9060005260206000209060020201604080519081016040529081600082018054600181600116156101000203166002900480601f0160208091040260200160405190810160405280929190818152602001828054600181600116156101000203166002900480156109335780601f1061090857610100808354040283529160200191610933565b820191906000526020600020905b81548152906001019060200180831161091657829003601f168201915b50505050508152602001600182018054600181600116156101000203166002900480601f0160208091040260200160405190810160405280929190818152602001828054600181600116156101000203166002900480156109d55780601f106109aa576101008083540402835291602001916109d5565b820191906000526020600020905b8154815290600101906020018083116109b857829003601f168201915b505050505081525050915081602001516040516020018082805190602001908083835b602083101515610a1d57805182526020820191506020810190506020830392506109f8565b6001836020036101000a0380198251168184511680821785525050505050509050019150506040516020818303038152906040526040518082805190602001908083835b602083101515610a865780518252602082019150602081019050602083039250610a61565b6001836020036101000a038019825116818451168082178552505050505050905001915050604051809103902060001916856040516020018082805190602001908083835b602083101515610af05780518252602082019150602081019050602083039250610acb565b6001836020036101000a0380198251168184511680821785525050505050509050019150506040516020818303038152906040526040518082805190602001908083835b602083101515610b595780518252602082019150602081019050602083039250610b34565b6001836020036101000a0380198251168184511680821785525050505050509050019150506040518091039020600019161415610b9557600193505b828060010193505061085b565b831515610c58576040805190810160405280878152602001868152509050600281908060018154018082558091505090600182039060005260206000209060020201600090919290919091506000820151816000019080519060200190610c0a929190611160565b506020820151816001019080519060200190610c27929190611160565b505050507fbc6f152748126261832ed7e13c577054c3e9e8fde492258f797cfeb82361f61860405160405180910390a15b505050505050565b6000809054906101000a900473ffffffffffffffffffffffffffffffffffffffff1681565b6000600280549050905090565b600080600280549050610ca361075c565b811515610cac57fe5b0690508091505090565b60008190505b600280549050600182011015610d6957600260018201815481101515610cde57fe5b9060005260206000209060020201600282815481101515610cfb57fe5b906000526020600020906002020160008201816000019080546001816001161561010002031660029004610d309291906111e0565b5060018201816001019080546001816001161561010002031660029004610d589291906111e0565b509050508080600101915050610cbc565b6002600160028054905003815481101515610d8057fe5b906000526020600020906002020160008082016000610d9f9190611267565b600182016000610daf9190611267565b50506002805480919060019003610dc691906112af565b505050565b60606000600380549050111515610de157600080fd5b6003600160038054905003815481101515610df857fe5b90600052602060002090600202016000018054600181600116156101000203166002900480601f016020809104026020016040519081016040528092919081815260200182805460018160011615610100020316600290048015610e9d5780601f10610e7257610100808354040283529160200191610e9d565b820191906000526020600020905b815481529060010190602001808311610e8057829003601f168201915b5050505050905090565b600381815481101515610eb657fe5b9060005260206000209060020201600091509050806000018054600181600116156101000203166002900480601f016020809104026020016040519081016040528092919081815260200182805460018160011615610100020316600290048015610f625780601f10610f3757610100808354040283529160200191610f62565b820191906000526020600020905b815481529060010190602001808311610f4557829003601f168201915b505050505090806001018054600181600116156101000203166002900480601f0160208091040260200160405190810160405280929190818152602001828054600181600116156101000203166002900480156110005780601f10610fd557610100808354040283529160200191611000565b820191906000526020600020905b815481529060010190602001808311610fe357829003601f168201915b5050505050905082565b60008060009054906101000a900473ffffffffffffffffffffffffffffffffffffffff1673ffffffffffffffffffffffffffffffffffffffff163373ffffffffffffffffffffffffffffffffffffffff1614151561106757600080fd5b61106f610c92565b9050600360028281548110151561108257fe5b906000526020600020906002020190806001815401808255809150509060018203906000526020600020906002020160009091929091909150600082018160000190805460018160011615610100020316600290046110e29291906111e0565b506001820181600101908054600181600116156101000203166002900461110a9291906111e0565b5050505061111781610cb6565b7fcf974b08111a894573bb4efcaf782eb02c026f7d6c365c1333cbdf3e3bf4800960405160405180910390a150565b604080519081016040528060608152602001606081525090565b828054600181600116156101000203166002900490600052602060002090601f016020900481019282601f106111a157805160ff19168380011785556111cf565b828001600101855582156111cf579182015b828111156111ce5782518255916020019190600101906111b3565b5b5090506111dc91906112e1565b5090565b828054600181600116156101000203166002900490600052602060002090601f016020900481019282601f106112195780548555611256565b8280016001018555821561125657600052602060002091601f016020900482015b8281111561125557825482559160010191906001019061123a565b5b50905061126391906112e1565b5090565b50805460018160011615610100020316600290046000825580601f1061128d57506112ac565b601f0160209004906000526020600020908101906112ab91906112e1565b5b50565b8154818355818111156112dc576002028160020283600052602060002091820191016112db9190611306565b5b505050565b61130391905b808211156112ff5760008160009055506001016112e7565b5090565b90565b61134291905b8082111561133e57600080820160006113259190611267565b6001820160006113359190611267565b5060020161130c565b5090565b905600a165627a7a72305820a29eba2e050ce199bc75b5ef45327f70fc695d48b8ded6ee40919224d0e6952f0029",
  "source": "pragma solidity ^0.4.24;\n\n\ncontract Raffle {\n  struct Ticket {\n    string fullname;\n    string email;\n  }\n\n // State\n  address public owner;\n  string public ownerName;\n\n  Ticket[] public tickets;\n  Ticket[] public drawnTickets;\n\n  event TicketBought();\n  event TicketDrawn();\n\n  constructor(string _name) public {\n    owner = msg.sender;\n    ownerName = _name;\n  }\n\n  // Sell a ticket. Validate that the email associated to the buyer doesn't have a ticket already\n  function buyTicket(string fullname, string email) public {\n    bool exists = false;\n    for (uint i = 0; !exists && i < tickets.length; i++) {\n      Ticket memory ticket = tickets[i];\n\n      if (keccak256(abi.encodePacked(email)) == keccak256(abi.encodePacked(ticket.email))) {\n        exists = true;\n      }\n    }\n\n    if (!exists) {\n      Ticket memory newTicket = Ticket(fullname, email);\n      tickets.push(newTicket);\n      emit TicketBought();\n    }\n  }\n\n  function currentWinner() public constant returns (string fullname) {\n    require(drawnTickets.length > 0);\n    return drawnTickets[drawnTickets.length - 1].fullname;\n  }\n\n  function size() public constant returns (uint) {\n    return tickets.length;\n  }\n\n  function drawnSize() public constant returns (uint) {\n    return drawnTickets.length;\n  }\n\n  function drawTicket() public {\n    require(msg.sender == owner);\n\n    uint idx = randomTicketIndex();\n    drawnTickets.push(tickets[idx]);\n    removeTicket(idx);\n\n    emit TicketDrawn();\n  }\n\n  function removeTicket(uint idx) public {\n    for (uint i = idx; i + 1 < tickets.length; i++) {\n      tickets[i] = tickets[i+1];\n    }\n\n    delete tickets[tickets.length - 1];\n    tickets.length--;\n  }\n\n  function randomTicketIndex() public constant returns (uint) {\n    uint idx = random() % tickets.length;\n    return idx;\n  }\n\n  // Generate a random number using the Linear Congruential Generator algorithm,\n  // using the block number as the seed of randomness.\n  // The magic numbers `a`, `c` and `m` where taken from the Wikipedia article.\n  function random() public constant returns (uint) {\n    uint seed = block.number;\n\n    uint a = 1103515245;\n    uint c = 12345;\n    uint m = 2 ** 32;\n\n    return (a * seed + c) % m;\n  }\n}\n",
  "sourcePath": "/home/ubuntu/smart-raffle/blockchain/contracts/Raffle.sol",
  "compiler": {
    "name": "solc",
    "version": "0.4.24+commit.e67f0147.Emscripten.clang"
  },
  "schemaVersion": "2.0.1",
  "updatedAt": "2018-11-13T08:04:26.070Z"
}